{
	"bankDemo.sol": {
		"SimpleBank": {
			"abi": [
				{
					"anonymous": false,
					"inputs": [
						{
							"indexed": true,
							"internalType": "address",
							"name": "user",
							"type": "address"
						},
						{
							"indexed": false,
							"internalType": "uint256",
							"name": "amount",
							"type": "uint256"
						}
					],
					"name": "Deposit",
					"type": "event"
				},
				{
					"anonymous": false,
					"inputs": [
						{
							"indexed": true,
							"internalType": "address",
							"name": "from",
							"type": "address"
						},
						{
							"indexed": true,
							"internalType": "address",
							"name": "to",
							"type": "address"
						},
						{
							"indexed": false,
							"internalType": "uint256",
							"name": "amount",
							"type": "uint256"
						}
					],
					"name": "Transfer",
					"type": "event"
				},
				{
					"anonymous": false,
					"inputs": [
						{
							"indexed": true,
							"internalType": "address",
							"name": "user",
							"type": "address"
						},
						{
							"indexed": false,
							"internalType": "uint256",
							"name": "amount",
							"type": "uint256"
						}
					],
					"name": "Withdrawal",
					"type": "event"
				},
				{
					"inputs": [],
					"name": "deposit",
					"outputs": [],
					"stateMutability": "payable",
					"type": "function"
				},
				{
					"inputs": [
						{
							"internalType": "address",
							"name": "user",
							"type": "address"
						}
					],
					"name": "getBalance",
					"outputs": [
						{
							"internalType": "uint256",
							"name": "",
							"type": "uint256"
						}
					],
					"stateMutability": "view",
					"type": "function"
				},
				{
					"inputs": [
						{
							"internalType": "address",
							"name": "to",
							"type": "address"
						},
						{
							"internalType": "uint256",
							"name": "amount",
							"type": "uint256"
						}
					],
					"name": "transfer",
					"outputs": [],
					"stateMutability": "nonpayable",
					"type": "function"
				},
				{
					"inputs": [
						{
							"internalType": "uint256",
							"name": "amount",
							"type": "uint256"
						}
					],
					"name": "withdraw",
					"outputs": [],
					"stateMutability": "nonpayable",
					"type": "function"
				}
			],
			"devdoc": {
				"kind": "dev",
				"methods": {},
				"version": 1
			},
			"evm": {
				"assembly": "    /* \"bankDemo.sol\":61:1383  contract SimpleBank {... */\n  mstore(0x40, 0x80)\n  callvalue\n  dup1\n  iszero\n  tag_1\n  jumpi\n  revert(0x00, 0x00)\ntag_1:\n  pop\n  dataSize(sub_0)\n  dup1\n  dataOffset(sub_0)\n  0x00\n  codecopy\n  0x00\n  return\nstop\n\nsub_0: assembly {\n        /* \"bankDemo.sol\":61:1383  contract SimpleBank {... */\n      mstore(0x40, 0x80)\n      jumpi(tag_1, lt(calldatasize, 0x04))\n      shr(0xe0, calldataload(0x00))\n      dup1\n      0x2e1a7d4d\n      eq\n      tag_2\n      jumpi\n      dup1\n      0xa9059cbb\n      eq\n      tag_3\n      jumpi\n      dup1\n      0xd0e30db0\n      eq\n      tag_4\n      jumpi\n      dup1\n      0xf8b2cb4f\n      eq\n      tag_5\n      jumpi\n    tag_1:\n      revert(0x00, 0x00)\n        /* \"bankDemo.sol\":610:873  function withdraw(uint256 amount) external {... */\n    tag_2:\n      callvalue\n      dup1\n      iszero\n      tag_6\n      jumpi\n      revert(0x00, 0x00)\n    tag_6:\n      pop\n      tag_7\n      0x04\n      dup1\n      calldatasize\n      sub\n      dup2\n      add\n      swap1\n      tag_8\n      swap2\n      swap1\n      tag_9\n      jump\t// in\n    tag_8:\n      tag_10\n      jump\t// in\n    tag_7:\n      stop\n        /* \"bankDemo.sol\":926:1244  function transfer(address to, uint256 amount) external {... */\n    tag_3:\n      callvalue\n      dup1\n      iszero\n      tag_11\n      jumpi\n      revert(0x00, 0x00)\n    tag_11:\n      pop\n      tag_12\n      0x04\n      dup1\n      calldatasize\n      sub\n      dup2\n      add\n      swap1\n      tag_13\n      swap2\n      swap1\n      tag_14\n      jump\t// in\n    tag_13:\n      tag_15\n      jump\t// in\n    tag_12:\n      stop\n        /* \"bankDemo.sol\":375:567  function deposit() external payable {... */\n    tag_4:\n      tag_16\n      tag_17\n      jump\t// in\n    tag_16:\n      stop\n        /* \"bankDemo.sol\":1274:1380  function getBalance(address user) external view returns (uint256) {... */\n    tag_5:\n      callvalue\n      dup1\n      iszero\n      tag_18\n      jumpi\n      revert(0x00, 0x00)\n    tag_18:\n      pop\n      tag_19\n      0x04\n      dup1\n      calldatasize\n      sub\n      dup2\n      add\n      swap1\n      tag_20\n      swap2\n      swap1\n      tag_21\n      jump\t// in\n    tag_20:\n      tag_22\n      jump\t// in\n    tag_19:\n      mload(0x40)\n      tag_23\n      swap2\n      swap1\n      tag_24\n      jump\t// in\n    tag_23:\n      mload(0x40)\n      dup1\n      swap2\n      sub\n      swap1\n      return\n        /* \"bankDemo.sol\":610:873  function withdraw(uint256 amount) external {... */\n    tag_10:\n        /* \"bankDemo.sol\":696:702  amount */\n      dup1\n        /* \"bankDemo.sol\":672:680  balances */\n      0x00\n        /* \"bankDemo.sol\":672:692  balances[msg.sender] */\n      0x00\n        /* \"bankDemo.sol\":681:691  msg.sender */\n      caller\n        /* \"bankDemo.sol\":672:692  balances[msg.sender] */\n      0xffffffffffffffffffffffffffffffffffffffff\n      and\n      0xffffffffffffffffffffffffffffffffffffffff\n      and\n      dup2\n      mstore\n      0x20\n      add\n      swap1\n      dup2\n      mstore\n      0x20\n      add\n      0x00\n      keccak256\n      sload\n        /* \"bankDemo.sol\":672:702  balances[msg.sender] >= amount */\n      lt\n      iszero\n        /* \"bankDemo.sol\":664:727  require(balances[msg.sender] >= amount, \"Insufficient balance\") */\n      tag_26\n      jumpi\n      mload(0x40)\n      0x08c379a000000000000000000000000000000000000000000000000000000000\n      dup2\n      mstore\n      0x04\n      add\n      tag_27\n      swap1\n      tag_28\n      jump\t// in\n    tag_27:\n      mload(0x40)\n      dup1\n      swap2\n      sub\n      swap1\n      revert\n    tag_26:\n        /* \"bankDemo.sol\":764:770  amount */\n      dup1\n        /* \"bankDemo.sol\":740:748  balances */\n      0x00\n        /* \"bankDemo.sol\":740:760  balances[msg.sender] */\n      0x00\n        /* \"bankDemo.sol\":749:759  msg.sender */\n      caller\n        /* \"bankDemo.sol\":740:760  balances[msg.sender] */\n      0xffffffffffffffffffffffffffffffffffffffff\n      and\n      0xffffffffffffffffffffffffffffffffffffffff\n      and\n      dup2\n      mstore\n      0x20\n      add\n      swap1\n      dup2\n      mstore\n      0x20\n      add\n      0x00\n      keccak256\n      0x00\n        /* \"bankDemo.sol\":740:770  balances[msg.sender] -= amount */\n      dup3\n      dup3\n      sload\n      tag_29\n      swap2\n      swap1\n      tag_30\n      jump\t// in\n    tag_29:\n      swap3\n      pop\n      pop\n      dup2\n      swap1\n      sstore\n      pop\n        /* \"bankDemo.sol\":789:799  msg.sender */\n      caller\n        /* \"bankDemo.sol\":781:809  payable(msg.sender).transfer */\n      0xffffffffffffffffffffffffffffffffffffffff\n      and\n        /* \"bankDemo.sol\":781:817  payable(msg.sender).transfer(amount) */\n      0x08fc\n        /* \"bankDemo.sol\":810:816  amount */\n      dup3\n        /* \"bankDemo.sol\":781:817  payable(msg.sender).transfer(amount) */\n      swap1\n      dup2\n      iszero\n      mul\n      swap1\n      mload(0x40)\n      0x00\n      mload(0x40)\n      dup1\n      dup4\n      sub\n      dup2\n      dup6\n      dup9\n      dup9\n      call\n      swap4\n      pop\n      pop\n      pop\n      pop\n      iszero\n      dup1\n      iszero\n      tag_32\n      jumpi\n      returndatacopy(0x00, 0x00, returndatasize)\n      revert(0x00, returndatasize)\n    tag_32:\n      pop\n        /* \"bankDemo.sol\":846:856  msg.sender */\n      caller\n        /* \"bankDemo.sol\":835:865  Withdrawal(msg.sender, amount) */\n      0xffffffffffffffffffffffffffffffffffffffff\n      and\n      0x7fcf532c15f0a6db0bd6d0e038bea71d30d808c7d98cb3bf7268a95bf5081b65\n        /* \"bankDemo.sol\":858:864  amount */\n      dup3\n        /* \"bankDemo.sol\":835:865  Withdrawal(msg.sender, amount) */\n      mload(0x40)\n      tag_33\n      swap2\n      swap1\n      tag_24\n      jump\t// in\n    tag_33:\n      mload(0x40)\n      dup1\n      swap2\n      sub\n      swap1\n      log2\n        /* \"bankDemo.sol\":610:873  function withdraw(uint256 amount) external {... */\n      pop\n      jump\t// out\n        /* \"bankDemo.sol\":926:1244  function transfer(address to, uint256 amount) external {... */\n    tag_15:\n        /* \"bankDemo.sol\":1024:1030  amount */\n      dup1\n        /* \"bankDemo.sol\":1000:1008  balances */\n      0x00\n        /* \"bankDemo.sol\":1000:1020  balances[msg.sender] */\n      0x00\n        /* \"bankDemo.sol\":1009:1019  msg.sender */\n      caller\n        /* \"bankDemo.sol\":1000:1020  balances[msg.sender] */\n      0xffffffffffffffffffffffffffffffffffffffff\n      and\n      0xffffffffffffffffffffffffffffffffffffffff\n      and\n      dup2\n      mstore\n      0x20\n      add\n      swap1\n      dup2\n      mstore\n      0x20\n      add\n      0x00\n      keccak256\n      sload\n        /* \"bankDemo.sol\":1000:1030  balances[msg.sender] >= amount */\n      lt\n      iszero\n        /* \"bankDemo.sol\":992:1055  require(balances[msg.sender] >= amount, \"Insufficient balance\") */\n      tag_35\n      jumpi\n      mload(0x40)\n      0x08c379a000000000000000000000000000000000000000000000000000000000\n      dup2\n      mstore\n      0x04\n      add\n      tag_36\n      swap1\n      tag_28\n      jump\t// in\n    tag_36:\n      mload(0x40)\n      dup1\n      swap2\n      sub\n      swap1\n      revert\n    tag_35:\n        /* \"bankDemo.sol\":1088:1089  0 */\n      0x00\n        /* \"bankDemo.sol\":1074:1090  to != address(0) */\n      0xffffffffffffffffffffffffffffffffffffffff\n      and\n        /* \"bankDemo.sol\":1074:1076  to */\n      dup3\n        /* \"bankDemo.sol\":1074:1090  to != address(0) */\n      0xffffffffffffffffffffffffffffffffffffffff\n      and\n      sub\n        /* \"bankDemo.sol\":1066:1110  require(to != address(0), \"Invalid address\") */\n      tag_37\n      jumpi\n      mload(0x40)\n      0x08c379a000000000000000000000000000000000000000000000000000000000\n      dup2\n      mstore\n      0x04\n      add\n      tag_38\n      swap1\n      tag_39\n      jump\t// in\n    tag_38:\n      mload(0x40)\n      dup1\n      swap2\n      sub\n      swap1\n      revert\n    tag_37:\n        /* \"bankDemo.sol\":1147:1153  amount */\n      dup1\n        /* \"bankDemo.sol\":1123:1131  balances */\n      0x00\n        /* \"bankDemo.sol\":1123:1143  balances[msg.sender] */\n      0x00\n        /* \"bankDemo.sol\":1132:1142  msg.sender */\n      caller\n        /* \"bankDemo.sol\":1123:1143  balances[msg.sender] */\n      0xffffffffffffffffffffffffffffffffffffffff\n      and\n      0xffffffffffffffffffffffffffffffffffffffff\n      and\n      dup2\n      mstore\n      0x20\n      add\n      swap1\n      dup2\n      mstore\n      0x20\n      add\n      0x00\n      keccak256\n      0x00\n        /* \"bankDemo.sol\":1123:1153  balances[msg.sender] -= amount */\n      dup3\n      dup3\n      sload\n      tag_40\n      swap2\n      swap1\n      tag_30\n      jump\t// in\n    tag_40:\n      swap3\n      pop\n      pop\n      dup2\n      swap1\n      sstore\n      pop\n        /* \"bankDemo.sol\":1180:1186  amount */\n      dup1\n        /* \"bankDemo.sol\":1164:1172  balances */\n      0x00\n        /* \"bankDemo.sol\":1164:1176  balances[to] */\n      0x00\n        /* \"bankDemo.sol\":1173:1175  to */\n      dup5\n        /* \"bankDemo.sol\":1164:1176  balances[to] */\n      0xffffffffffffffffffffffffffffffffffffffff\n      and\n      0xffffffffffffffffffffffffffffffffffffffff\n      and\n      dup2\n      mstore\n      0x20\n      add\n      swap1\n      dup2\n      mstore\n      0x20\n      add\n      0x00\n      keccak256\n      0x00\n        /* \"bankDemo.sol\":1164:1186  balances[to] += amount */\n      dup3\n      dup3\n      sload\n      tag_41\n      swap2\n      swap1\n      tag_42\n      jump\t// in\n    tag_41:\n      swap3\n      pop\n      pop\n      dup2\n      swap1\n      sstore\n      pop\n        /* \"bankDemo.sol\":1225:1227  to */\n      dup2\n        /* \"bankDemo.sol\":1204:1236  Transfer(msg.sender, to, amount) */\n      0xffffffffffffffffffffffffffffffffffffffff\n      and\n        /* \"bankDemo.sol\":1213:1223  msg.sender */\n      caller\n        /* \"bankDemo.sol\":1204:1236  Transfer(msg.sender, to, amount) */\n      0xffffffffffffffffffffffffffffffffffffffff\n      and\n      0xddf252ad1be2c89b69c2b068fc378daa952ba7f163c4a11628f55a4df523b3ef\n        /* \"bankDemo.sol\":1229:1235  amount */\n      dup4\n        /* \"bankDemo.sol\":1204:1236  Transfer(msg.sender, to, amount) */\n      mload(0x40)\n      tag_43\n      swap2\n      swap1\n      tag_24\n      jump\t// in\n    tag_43:\n      mload(0x40)\n      dup1\n      swap2\n      sub\n      swap1\n      log3\n        /* \"bankDemo.sol\":926:1244  function transfer(address to, uint256 amount) external {... */\n      pop\n      pop\n      jump\t// out\n        /* \"bankDemo.sol\":375:567  function deposit() external payable {... */\n    tag_17:\n        /* \"bankDemo.sol\":442:443  0 */\n      0x00\n        /* \"bankDemo.sol\":430:439  msg.value */\n      callvalue\n        /* \"bankDemo.sol\":430:443  msg.value > 0 */\n      gt\n        /* \"bankDemo.sol\":422:467  require(msg.value > 0, \"Deposit must be > 0\") */\n      tag_45\n      jumpi\n      mload(0x40)\n      0x08c379a000000000000000000000000000000000000000000000000000000000\n      dup2\n      mstore\n      0x04\n      add\n      tag_46\n      swap1\n      tag_47\n      jump\t// in\n    tag_46:\n      mload(0x40)\n      dup1\n      swap2\n      sub\n      swap1\n      revert\n    tag_45:\n        /* \"bankDemo.sol\":504:513  msg.value */\n      callvalue\n        /* \"bankDemo.sol\":480:488  balances */\n      0x00\n        /* \"bankDemo.sol\":480:500  balances[msg.sender] */\n      0x00\n        /* \"bankDemo.sol\":489:499  msg.sender */\n      caller\n        /* \"bankDemo.sol\":480:500  balances[msg.sender] */\n      0xffffffffffffffffffffffffffffffffffffffff\n      and\n      0xffffffffffffffffffffffffffffffffffffffff\n      and\n      dup2\n      mstore\n      0x20\n      add\n      swap1\n      dup2\n      mstore\n      0x20\n      add\n      0x00\n      keccak256\n      0x00\n        /* \"bankDemo.sol\":480:513  balances[msg.sender] += msg.value */\n      dup3\n      dup3\n      sload\n      tag_48\n      swap2\n      swap1\n      tag_42\n      jump\t// in\n    tag_48:\n      swap3\n      pop\n      pop\n      dup2\n      swap1\n      sstore\n      pop\n        /* \"bankDemo.sol\":537:547  msg.sender */\n      caller\n        /* \"bankDemo.sol\":529:559  Deposit(msg.sender, msg.value) */\n      0xffffffffffffffffffffffffffffffffffffffff\n      and\n      0xe1fffcc4923d04b559f4d29a8bfc6cda04eb5b0d3c460751c2402c5c5cc9109c\n        /* \"bankDemo.sol\":549:558  msg.value */\n      callvalue\n        /* \"bankDemo.sol\":529:559  Deposit(msg.sender, msg.value) */\n      mload(0x40)\n      tag_49\n      swap2\n      swap1\n      tag_24\n      jump\t// in\n    tag_49:\n      mload(0x40)\n      dup1\n      swap2\n      sub\n      swap1\n      log2\n        /* \"bankDemo.sol\":375:567  function deposit() external payable {... */\n      jump\t// out\n        /* \"bankDemo.sol\":1274:1380  function getBalance(address user) external view returns (uint256) {... */\n    tag_22:\n        /* \"bankDemo.sol\":1331:1338  uint256 */\n      0x00\n        /* \"bankDemo.sol\":1358:1366  balances */\n      0x00\n        /* \"bankDemo.sol\":1358:1372  balances[user] */\n      0x00\n        /* \"bankDemo.sol\":1367:1371  user */\n      dup4\n        /* \"bankDemo.sol\":1358:1372  balances[user] */\n      0xffffffffffffffffffffffffffffffffffffffff\n      and\n      0xffffffffffffffffffffffffffffffffffffffff\n      and\n      dup2\n      mstore\n      0x20\n      add\n      swap1\n      dup2\n      mstore\n      0x20\n      add\n      0x00\n      keccak256\n      sload\n        /* \"bankDemo.sol\":1351:1372  return balances[user] */\n      swap1\n      pop\n        /* \"bankDemo.sol\":1274:1380  function getBalance(address user) external view returns (uint256) {... */\n      swap2\n      swap1\n      pop\n      jump\t// out\n        /* \"#utility.yul\":88:205   */\n    tag_52:\n        /* \"#utility.yul\":197:198   */\n      0x00\n        /* \"#utility.yul\":194:195   */\n      0x00\n        /* \"#utility.yul\":187:199   */\n      revert\n        /* \"#utility.yul\":334:411   */\n    tag_54:\n        /* \"#utility.yul\":371:378   */\n      0x00\n        /* \"#utility.yul\":400:405   */\n      dup2\n        /* \"#utility.yul\":389:405   */\n      swap1\n      pop\n        /* \"#utility.yul\":334:411   */\n      swap2\n      swap1\n      pop\n      jump\t// out\n        /* \"#utility.yul\":417:539   */\n    tag_55:\n        /* \"#utility.yul\":490:514   */\n      tag_76\n        /* \"#utility.yul\":508:513   */\n      dup2\n        /* \"#utility.yul\":490:514   */\n      tag_54\n      jump\t// in\n    tag_76:\n        /* \"#utility.yul\":483:488   */\n      dup2\n        /* \"#utility.yul\":480:515   */\n      eq\n        /* \"#utility.yul\":470:533   */\n      tag_77\n      jumpi\n        /* \"#utility.yul\":529:530   */\n      0x00\n        /* \"#utility.yul\":526:527   */\n      0x00\n        /* \"#utility.yul\":519:531   */\n      revert\n        /* \"#utility.yul\":470:533   */\n    tag_77:\n        /* \"#utility.yul\":417:539   */\n      pop\n      jump\t// out\n        /* \"#utility.yul\":545:684   */\n    tag_56:\n        /* \"#utility.yul\":591:596   */\n      0x00\n        /* \"#utility.yul\":629:635   */\n      dup2\n        /* \"#utility.yul\":616:636   */\n      calldataload\n        /* \"#utility.yul\":607:636   */\n      swap1\n      pop\n        /* \"#utility.yul\":645:678   */\n      tag_79\n        /* \"#utility.yul\":672:677   */\n      dup2\n        /* \"#utility.yul\":645:678   */\n      tag_55\n      jump\t// in\n    tag_79:\n        /* \"#utility.yul\":545:684   */\n      swap3\n      swap2\n      pop\n      pop\n      jump\t// out\n        /* \"#utility.yul\":690:1019   */\n    tag_9:\n        /* \"#utility.yul\":749:755   */\n      0x00\n        /* \"#utility.yul\":798:800   */\n      0x20\n        /* \"#utility.yul\":786:795   */\n      dup3\n        /* \"#utility.yul\":777:784   */\n      dup5\n        /* \"#utility.yul\":773:796   */\n      sub\n        /* \"#utility.yul\":769:801   */\n      slt\n        /* \"#utility.yul\":766:885   */\n      iszero\n      tag_81\n      jumpi\n        /* \"#utility.yul\":804:883   */\n      tag_82\n      tag_52\n      jump\t// in\n    tag_82:\n        /* \"#utility.yul\":766:885   */\n    tag_81:\n        /* \"#utility.yul\":924:925   */\n      0x00\n        /* \"#utility.yul\":949:1002   */\n      tag_83\n        /* \"#utility.yul\":994:1001   */\n      dup5\n        /* \"#utility.yul\":985:991   */\n      dup3\n        /* \"#utility.yul\":974:983   */\n      dup6\n        /* \"#utility.yul\":970:992   */\n      add\n        /* \"#utility.yul\":949:1002   */\n      tag_56\n      jump\t// in\n    tag_83:\n        /* \"#utility.yul\":939:1002   */\n      swap2\n      pop\n        /* \"#utility.yul\":895:1012   */\n      pop\n        /* \"#utility.yul\":690:1019   */\n      swap3\n      swap2\n      pop\n      pop\n      jump\t// out\n        /* \"#utility.yul\":1025:1151   */\n    tag_57:\n        /* \"#utility.yul\":1062:1069   */\n      0x00\n        /* \"#utility.yul\":1102:1144   */\n      0xffffffffffffffffffffffffffffffffffffffff\n        /* \"#utility.yul\":1095:1100   */\n      dup3\n        /* \"#utility.yul\":1091:1145   */\n      and\n        /* \"#utility.yul\":1080:1145   */\n      swap1\n      pop\n        /* \"#utility.yul\":1025:1151   */\n      swap2\n      swap1\n      pop\n      jump\t// out\n        /* \"#utility.yul\":1157:1253   */\n    tag_58:\n        /* \"#utility.yul\":1194:1201   */\n      0x00\n        /* \"#utility.yul\":1223:1247   */\n      tag_86\n        /* \"#utility.yul\":1241:1246   */\n      dup3\n        /* \"#utility.yul\":1223:1247   */\n      tag_57\n      jump\t// in\n    tag_86:\n        /* \"#utility.yul\":1212:1247   */\n      swap1\n      pop\n        /* \"#utility.yul\":1157:1253   */\n      swap2\n      swap1\n      pop\n      jump\t// out\n        /* \"#utility.yul\":1259:1381   */\n    tag_59:\n        /* \"#utility.yul\":1332:1356   */\n      tag_88\n        /* \"#utility.yul\":1350:1355   */\n      dup2\n        /* \"#utility.yul\":1332:1356   */\n      tag_58\n      jump\t// in\n    tag_88:\n        /* \"#utility.yul\":1325:1330   */\n      dup2\n        /* \"#utility.yul\":1322:1357   */\n      eq\n        /* \"#utility.yul\":1312:1375   */\n      tag_89\n      jumpi\n        /* \"#utility.yul\":1371:1372   */\n      0x00\n        /* \"#utility.yul\":1368:1369   */\n      0x00\n        /* \"#utility.yul\":1361:1373   */\n      revert\n        /* \"#utility.yul\":1312:1375   */\n    tag_89:\n        /* \"#utility.yul\":1259:1381   */\n      pop\n      jump\t// out\n        /* \"#utility.yul\":1387:1526   */\n    tag_60:\n        /* \"#utility.yul\":1433:1438   */\n      0x00\n        /* \"#utility.yul\":1471:1477   */\n      dup2\n        /* \"#utility.yul\":1458:1478   */\n      calldataload\n        /* \"#utility.yul\":1449:1478   */\n      swap1\n      pop\n        /* \"#utility.yul\":1487:1520   */\n      tag_91\n        /* \"#utility.yul\":1514:1519   */\n      dup2\n        /* \"#utility.yul\":1487:1520   */\n      tag_59\n      jump\t// in\n    tag_91:\n        /* \"#utility.yul\":1387:1526   */\n      swap3\n      swap2\n      pop\n      pop\n      jump\t// out\n        /* \"#utility.yul\":1532:2006   */\n    tag_14:\n        /* \"#utility.yul\":1600:1606   */\n      0x00\n        /* \"#utility.yul\":1608:1614   */\n      0x00\n        /* \"#utility.yul\":1657:1659   */\n      0x40\n        /* \"#utility.yul\":1645:1654   */\n      dup4\n        /* \"#utility.yul\":1636:1643   */\n      dup6\n        /* \"#utility.yul\":1632:1655   */\n      sub\n        /* \"#utility.yul\":1628:1660   */\n      slt\n        /* \"#utility.yul\":1625:1744   */\n      iszero\n      tag_93\n      jumpi\n        /* \"#utility.yul\":1663:1742   */\n      tag_94\n      tag_52\n      jump\t// in\n    tag_94:\n        /* \"#utility.yul\":1625:1744   */\n    tag_93:\n        /* \"#utility.yul\":1783:1784   */\n      0x00\n        /* \"#utility.yul\":1808:1861   */\n      tag_95\n        /* \"#utility.yul\":1853:1860   */\n      dup6\n        /* \"#utility.yul\":1844:1850   */\n      dup3\n        /* \"#utility.yul\":1833:1842   */\n      dup7\n        /* \"#utility.yul\":1829:1851   */\n      add\n        /* \"#utility.yul\":1808:1861   */\n      tag_60\n      jump\t// in\n    tag_95:\n        /* \"#utility.yul\":1798:1861   */\n      swap3\n      pop\n        /* \"#utility.yul\":1754:1871   */\n      pop\n        /* \"#utility.yul\":1910:1912   */\n      0x20\n        /* \"#utility.yul\":1936:1989   */\n      tag_96\n        /* \"#utility.yul\":1981:1988   */\n      dup6\n        /* \"#utility.yul\":1972:1978   */\n      dup3\n        /* \"#utility.yul\":1961:1970   */\n      dup7\n        /* \"#utility.yul\":1957:1979   */\n      add\n        /* \"#utility.yul\":1936:1989   */\n      tag_56\n      jump\t// in\n    tag_96:\n        /* \"#utility.yul\":1926:1989   */\n      swap2\n      pop\n        /* \"#utility.yul\":1881:1999   */\n      pop\n        /* \"#utility.yul\":1532:2006   */\n      swap3\n      pop\n      swap3\n      swap1\n      pop\n      jump\t// out\n        /* \"#utility.yul\":2012:2341   */\n    tag_21:\n        /* \"#utility.yul\":2071:2077   */\n      0x00\n        /* \"#utility.yul\":2120:2122   */\n      0x20\n        /* \"#utility.yul\":2108:2117   */\n      dup3\n        /* \"#utility.yul\":2099:2106   */\n      dup5\n        /* \"#utility.yul\":2095:2118   */\n      sub\n        /* \"#utility.yul\":2091:2123   */\n      slt\n        /* \"#utility.yul\":2088:2207   */\n      iszero\n      tag_98\n      jumpi\n        /* \"#utility.yul\":2126:2205   */\n      tag_99\n      tag_52\n      jump\t// in\n    tag_99:\n        /* \"#utility.yul\":2088:2207   */\n    tag_98:\n        /* \"#utility.yul\":2246:2247   */\n      0x00\n        /* \"#utility.yul\":2271:2324   */\n      tag_100\n        /* \"#utility.yul\":2316:2323   */\n      dup5\n        /* \"#utility.yul\":2307:2313   */\n      dup3\n        /* \"#utility.yul\":2296:2305   */\n      dup6\n        /* \"#utility.yul\":2292:2314   */\n      add\n        /* \"#utility.yul\":2271:2324   */\n      tag_60\n      jump\t// in\n    tag_100:\n        /* \"#utility.yul\":2261:2324   */\n      swap2\n      pop\n        /* \"#utility.yul\":2217:2334   */\n      pop\n        /* \"#utility.yul\":2012:2341   */\n      swap3\n      swap2\n      pop\n      pop\n      jump\t// out\n        /* \"#utility.yul\":2347:2465   */\n    tag_61:\n        /* \"#utility.yul\":2434:2458   */\n      tag_102\n        /* \"#utility.yul\":2452:2457   */\n      dup2\n        /* \"#utility.yul\":2434:2458   */\n      tag_54\n      jump\t// in\n    tag_102:\n        /* \"#utility.yul\":2429:2432   */\n      dup3\n        /* \"#utility.yul\":2422:2459   */\n      mstore\n        /* \"#utility.yul\":2347:2465   */\n      pop\n      pop\n      jump\t// out\n        /* \"#utility.yul\":2471:2693   */\n    tag_24:\n        /* \"#utility.yul\":2564:2568   */\n      0x00\n        /* \"#utility.yul\":2602:2604   */\n      0x20\n        /* \"#utility.yul\":2591:2600   */\n      dup3\n        /* \"#utility.yul\":2587:2605   */\n      add\n        /* \"#utility.yul\":2579:2605   */\n      swap1\n      pop\n        /* \"#utility.yul\":2615:2686   */\n      tag_104\n        /* \"#utility.yul\":2683:2684   */\n      0x00\n        /* \"#utility.yul\":2672:2681   */\n      dup4\n        /* \"#utility.yul\":2668:2685   */\n      add\n        /* \"#utility.yul\":2659:2665   */\n      dup5\n        /* \"#utility.yul\":2615:2686   */\n      tag_61\n      jump\t// in\n    tag_104:\n        /* \"#utility.yul\":2471:2693   */\n      swap3\n      swap2\n      pop\n      pop\n      jump\t// out\n        /* \"#utility.yul\":2699:2868   */\n    tag_62:\n        /* \"#utility.yul\":2783:2794   */\n      0x00\n        /* \"#utility.yul\":2817:2823   */\n      dup3\n        /* \"#utility.yul\":2812:2815   */\n      dup3\n        /* \"#utility.yul\":2805:2824   */\n      mstore\n        /* \"#utility.yul\":2857:2861   */\n      0x20\n        /* \"#utility.yul\":2852:2855   */\n      dup3\n        /* \"#utility.yul\":2848:2862   */\n      add\n        /* \"#utility.yul\":2833:2862   */\n      swap1\n      pop\n        /* \"#utility.yul\":2699:2868   */\n      swap3\n      swap2\n      pop\n      pop\n      jump\t// out\n        /* \"#utility.yul\":2874:3044   */\n    tag_63:\n        /* \"#utility.yul\":3014:3036   */\n      0x496e73756666696369656e742062616c616e6365000000000000000000000000\n        /* \"#utility.yul\":3010:3011   */\n      0x00\n        /* \"#utility.yul\":3002:3008   */\n      dup3\n        /* \"#utility.yul\":2998:3012   */\n      add\n        /* \"#utility.yul\":2991:3037   */\n      mstore\n        /* \"#utility.yul\":2874:3044   */\n      pop\n      jump\t// out\n        /* \"#utility.yul\":3050:3416   */\n    tag_64:\n        /* \"#utility.yul\":3192:3195   */\n      0x00\n        /* \"#utility.yul\":3213:3280   */\n      tag_108\n        /* \"#utility.yul\":3277:3279   */\n      0x14\n        /* \"#utility.yul\":3272:3275   */\n      dup4\n        /* \"#utility.yul\":3213:3280   */\n      tag_62\n      jump\t// in\n    tag_108:\n        /* \"#utility.yul\":3206:3280   */\n      swap2\n      pop\n        /* \"#utility.yul\":3289:3382   */\n      tag_109\n        /* \"#utility.yul\":3378:3381   */\n      dup3\n        /* \"#utility.yul\":3289:3382   */\n      tag_63\n      jump\t// in\n    tag_109:\n        /* \"#utility.yul\":3407:3409   */\n      0x20\n        /* \"#utility.yul\":3402:3405   */\n      dup3\n        /* \"#utility.yul\":3398:3410   */\n      add\n        /* \"#utility.yul\":3391:3410   */\n      swap1\n      pop\n        /* \"#utility.yul\":3050:3416   */\n      swap2\n      swap1\n      pop\n      jump\t// out\n        /* \"#utility.yul\":3422:3841   */\n    tag_28:\n        /* \"#utility.yul\":3588:3592   */\n      0x00\n        /* \"#utility.yul\":3626:3628   */\n      0x20\n        /* \"#utility.yul\":3615:3624   */\n      dup3\n        /* \"#utility.yul\":3611:3629   */\n      add\n        /* \"#utility.yul\":3603:3629   */\n      swap1\n      pop\n        /* \"#utility.yul\":3675:3684   */\n      dup2\n        /* \"#utility.yul\":3669:3673   */\n      dup2\n        /* \"#utility.yul\":3665:3685   */\n      sub\n        /* \"#utility.yul\":3661:3662   */\n      0x00\n        /* \"#utility.yul\":3650:3659   */\n      dup4\n        /* \"#utility.yul\":3646:3663   */\n      add\n        /* \"#utility.yul\":3639:3686   */\n      mstore\n        /* \"#utility.yul\":3703:3834   */\n      tag_111\n        /* \"#utility.yul\":3829:3833   */\n      dup2\n        /* \"#utility.yul\":3703:3834   */\n      tag_64\n      jump\t// in\n    tag_111:\n        /* \"#utility.yul\":3695:3834   */\n      swap1\n      pop\n        /* \"#utility.yul\":3422:3841   */\n      swap2\n      swap1\n      pop\n      jump\t// out\n        /* \"#utility.yul\":3847:4027   */\n    tag_65:\n        /* \"#utility.yul\":3895:3972   */\n      0x4e487b7100000000000000000000000000000000000000000000000000000000\n        /* \"#utility.yul\":3892:3893   */\n      0x00\n        /* \"#utility.yul\":3885:3973   */\n      mstore\n        /* \"#utility.yul\":3992:3996   */\n      0x11\n        /* \"#utility.yul\":3989:3990   */\n      0x04\n        /* \"#utility.yul\":3982:3997   */\n      mstore\n        /* \"#utility.yul\":4016:4020   */\n      0x24\n        /* \"#utility.yul\":4013:4014   */\n      0x00\n        /* \"#utility.yul\":4006:4021   */\n      revert\n        /* \"#utility.yul\":4033:4227   */\n    tag_30:\n        /* \"#utility.yul\":4073:4077   */\n      0x00\n        /* \"#utility.yul\":4093:4113   */\n      tag_114\n        /* \"#utility.yul\":4111:4112   */\n      dup3\n        /* \"#utility.yul\":4093:4113   */\n      tag_54\n      jump\t// in\n    tag_114:\n        /* \"#utility.yul\":4088:4113   */\n      swap2\n      pop\n        /* \"#utility.yul\":4127:4147   */\n      tag_115\n        /* \"#utility.yul\":4145:4146   */\n      dup4\n        /* \"#utility.yul\":4127:4147   */\n      tag_54\n      jump\t// in\n    tag_115:\n        /* \"#utility.yul\":4122:4147   */\n      swap3\n      pop\n        /* \"#utility.yul\":4171:4172   */\n      dup3\n        /* \"#utility.yul\":4168:4169   */\n      dup3\n        /* \"#utility.yul\":4164:4173   */\n      sub\n        /* \"#utility.yul\":4156:4173   */\n      swap1\n      pop\n        /* \"#utility.yul\":4195:4196   */\n      dup2\n        /* \"#utility.yul\":4189:4193   */\n      dup2\n        /* \"#utility.yul\":4186:4197   */\n      gt\n        /* \"#utility.yul\":4183:4220   */\n      iszero\n      tag_116\n      jumpi\n        /* \"#utility.yul\":4200:4218   */\n      tag_117\n      tag_65\n      jump\t// in\n    tag_117:\n        /* \"#utility.yul\":4183:4220   */\n    tag_116:\n        /* \"#utility.yul\":4033:4227   */\n      swap3\n      swap2\n      pop\n      pop\n      jump\t// out\n        /* \"#utility.yul\":4233:4398   */\n    tag_66:\n        /* \"#utility.yul\":4373:4390   */\n      0x496e76616c696420616464726573730000000000000000000000000000000000\n        /* \"#utility.yul\":4369:4370   */\n      0x00\n        /* \"#utility.yul\":4361:4367   */\n      dup3\n        /* \"#utility.yul\":4357:4371   */\n      add\n        /* \"#utility.yul\":4350:4391   */\n      mstore\n        /* \"#utility.yul\":4233:4398   */\n      pop\n      jump\t// out\n        /* \"#utility.yul\":4404:4770   */\n    tag_67:\n        /* \"#utility.yul\":4546:4549   */\n      0x00\n        /* \"#utility.yul\":4567:4634   */\n      tag_120\n        /* \"#utility.yul\":4631:4633   */\n      0x0f\n        /* \"#utility.yul\":4626:4629   */\n      dup4\n        /* \"#utility.yul\":4567:4634   */\n      tag_62\n      jump\t// in\n    tag_120:\n        /* \"#utility.yul\":4560:4634   */\n      swap2\n      pop\n        /* \"#utility.yul\":4643:4736   */\n      tag_121\n        /* \"#utility.yul\":4732:4735   */\n      dup3\n        /* \"#utility.yul\":4643:4736   */\n      tag_66\n      jump\t// in\n    tag_121:\n        /* \"#utility.yul\":4761:4763   */\n      0x20\n        /* \"#utility.yul\":4756:4759   */\n      dup3\n        /* \"#utility.yul\":4752:4764   */\n      add\n        /* \"#utility.yul\":4745:4764   */\n      swap1\n      pop\n        /* \"#utility.yul\":4404:4770   */\n      swap2\n      swap1\n      pop\n      jump\t// out\n        /* \"#utility.yul\":4776:5195   */\n    tag_39:\n        /* \"#utility.yul\":4942:4946   */\n      0x00\n        /* \"#utility.yul\":4980:4982   */\n      0x20\n        /* \"#utility.yul\":4969:4978   */\n      dup3\n        /* \"#utility.yul\":4965:4983   */\n      add\n        /* \"#utility.yul\":4957:4983   */\n      swap1\n      pop\n        /* \"#utility.yul\":5029:5038   */\n      dup2\n        /* \"#utility.yul\":5023:5027   */\n      dup2\n        /* \"#utility.yul\":5019:5039   */\n      sub\n        /* \"#utility.yul\":5015:5016   */\n      0x00\n        /* \"#utility.yul\":5004:5013   */\n      dup4\n        /* \"#utility.yul\":5000:5017   */\n      add\n        /* \"#utility.yul\":4993:5040   */\n      mstore\n        /* \"#utility.yul\":5057:5188   */\n      tag_123\n        /* \"#utility.yul\":5183:5187   */\n      dup2\n        /* \"#utility.yul\":5057:5188   */\n      tag_67\n      jump\t// in\n    tag_123:\n        /* \"#utility.yul\":5049:5188   */\n      swap1\n      pop\n        /* \"#utility.yul\":4776:5195   */\n      swap2\n      swap1\n      pop\n      jump\t// out\n        /* \"#utility.yul\":5201:5392   */\n    tag_42:\n        /* \"#utility.yul\":5241:5244   */\n      0x00\n        /* \"#utility.yul\":5260:5280   */\n      tag_125\n        /* \"#utility.yul\":5278:5279   */\n      dup3\n        /* \"#utility.yul\":5260:5280   */\n      tag_54\n      jump\t// in\n    tag_125:\n        /* \"#utility.yul\":5255:5280   */\n      swap2\n      pop\n        /* \"#utility.yul\":5294:5314   */\n      tag_126\n        /* \"#utility.yul\":5312:5313   */\n      dup4\n        /* \"#utility.yul\":5294:5314   */\n      tag_54\n      jump\t// in\n    tag_126:\n        /* \"#utility.yul\":5289:5314   */\n      swap3\n      pop\n        /* \"#utility.yul\":5337:5338   */\n      dup3\n        /* \"#utility.yul\":5334:5335   */\n      dup3\n        /* \"#utility.yul\":5330:5339   */\n      add\n        /* \"#utility.yul\":5323:5339   */\n      swap1\n      pop\n        /* \"#utility.yul\":5358:5361   */\n      dup1\n        /* \"#utility.yul\":5355:5356   */\n      dup3\n        /* \"#utility.yul\":5352:5362   */\n      gt\n        /* \"#utility.yul\":5349:5385   */\n      iszero\n      tag_127\n      jumpi\n        /* \"#utility.yul\":5365:5383   */\n      tag_128\n      tag_65\n      jump\t// in\n    tag_128:\n        /* \"#utility.yul\":5349:5385   */\n    tag_127:\n        /* \"#utility.yul\":5201:5392   */\n      swap3\n      swap2\n      pop\n      pop\n      jump\t// out\n        /* \"#utility.yul\":5398:5567   */\n    tag_68:\n        /* \"#utility.yul\":5538:5559   */\n      0x4465706f736974206d757374206265203e203000000000000000000000000000\n        /* \"#utility.yul\":5534:5535   */\n      0x00\n        /* \"#utility.yul\":5526:5532   */\n      dup3\n        /* \"#utility.yul\":5522:5536   */\n      add\n        /* \"#utility.yul\":5515:5560   */\n      mstore\n        /* \"#utility.yul\":5398:5567   */\n      pop\n      jump\t// out\n        /* \"#utility.yul\":5573:5939   */\n    tag_69:\n        /* \"#utility.yul\":5715:5718   */\n      0x00\n        /* \"#utility.yul\":5736:5803   */\n      tag_131\n        /* \"#utility.yul\":5800:5802   */\n      0x13\n        /* \"#utility.yul\":5795:5798   */\n      dup4\n        /* \"#utility.yul\":5736:5803   */\n      tag_62\n      jump\t// in\n    tag_131:\n        /* \"#utility.yul\":5729:5803   */\n      swap2\n      pop\n        /* \"#utility.yul\":5812:5905   */\n      tag_132\n        /* \"#utility.yul\":5901:5904   */\n      dup3\n        /* \"#utility.yul\":5812:5905   */\n      tag_68\n      jump\t// in\n    tag_132:\n        /* \"#utility.yul\":5930:5932   */\n      0x20\n        /* \"#utility.yul\":5925:5928   */\n      dup3\n        /* \"#utility.yul\":5921:5933   */\n      add\n        /* \"#utility.yul\":5914:5933   */\n      swap1\n      pop\n        /* \"#utility.yul\":5573:5939   */\n      swap2\n      swap1\n      pop\n      jump\t// out\n        /* \"#utility.yul\":5945:6364   */\n    tag_47:\n        /* \"#utility.yul\":6111:6115   */\n      0x00\n        /* \"#utility.yul\":6149:6151   */\n      0x20\n        /* \"#utility.yul\":6138:6147   */\n      dup3\n        /* \"#utility.yul\":6134:6152   */\n      add\n        /* \"#utility.yul\":6126:6152   */\n      swap1\n      pop\n        /* \"#utility.yul\":6198:6207   */\n      dup2\n        /* \"#utility.yul\":6192:6196   */\n      dup2\n        /* \"#utility.yul\":6188:6208   */\n      sub\n        /* \"#utility.yul\":6184:6185   */\n      0x00\n        /* \"#utility.yul\":6173:6182   */\n      dup4\n        /* \"#utility.yul\":6169:6186   */\n      add\n        /* \"#utility.yul\":6162:6209   */\n      mstore\n        /* \"#utility.yul\":6226:6357   */\n      tag_134\n        /* \"#utility.yul\":6352:6356   */\n      dup2\n        /* \"#utility.yul\":6226:6357   */\n      tag_69\n      jump\t// in\n    tag_134:\n        /* \"#utility.yul\":6218:6357   */\n      swap1\n      pop\n        /* \"#utility.yul\":5945:6364   */\n      swap2\n      swap1\n      pop\n      jump\t// out\n\n    auxdata: 0xa26469706673582212202bd517536e862152a18bd405e0c096a9c1fb9bf1eb4cae71b1a2b6d8b4b4e76764736f6c634300081e0033\n}\n",
				"bytecode": {
					"linkReferences": {},
					"object": "6080604052348015600e575f5ffd5b506108bf8061001c5f395ff3fe60806040526004361061003e575f3560e01c80632e1a7d4d14610042578063a9059cbb1461006a578063d0e30db014610092578063f8b2cb4f1461009c575b5f5ffd5b34801561004d575f5ffd5b5061006860048036038101906100639190610598565b6100d8565b005b348015610075575f5ffd5b50610090600480360381019061008b919061061d565b61023e565b005b61009a610438565b005b3480156100a7575f5ffd5b506100c260048036038101906100bd919061065b565b61051c565b6040516100cf9190610695565b60405180910390f35b805f5f3373ffffffffffffffffffffffffffffffffffffffff1673ffffffffffffffffffffffffffffffffffffffff1681526020019081526020015f20541015610157576040517f08c379a000000000000000000000000000000000000000000000000000000000815260040161014e90610708565b60405180910390fd5b805f5f3373ffffffffffffffffffffffffffffffffffffffff1673ffffffffffffffffffffffffffffffffffffffff1681526020019081526020015f205f8282546101a29190610753565b925050819055503373ffffffffffffffffffffffffffffffffffffffff166108fc8290811502906040515f60405180830381858888f193505050501580156101ec573d5f5f3e3d5ffd5b503373ffffffffffffffffffffffffffffffffffffffff167f7fcf532c15f0a6db0bd6d0e038bea71d30d808c7d98cb3bf7268a95bf5081b65826040516102339190610695565b60405180910390a250565b805f5f3373ffffffffffffffffffffffffffffffffffffffff1673ffffffffffffffffffffffffffffffffffffffff1681526020019081526020015f205410156102bd576040517f08c379a00000000000000000000000000000000000000000000000000000000081526004016102b490610708565b60405180910390fd5b5f73ffffffffffffffffffffffffffffffffffffffff168273ffffffffffffffffffffffffffffffffffffffff160361032b576040517f08c379a0000000000000000000000000000000000000000000000000000000008152600401610322906107d0565b60405180910390fd5b805f5f3373ffffffffffffffffffffffffffffffffffffffff1673ffffffffffffffffffffffffffffffffffffffff1681526020019081526020015f205f8282546103769190610753565b92505081905550805f5f8473ffffffffffffffffffffffffffffffffffffffff1673ffffffffffffffffffffffffffffffffffffffff1681526020019081526020015f205f8282546103c891906107ee565b925050819055508173ffffffffffffffffffffffffffffffffffffffff163373ffffffffffffffffffffffffffffffffffffffff167fddf252ad1be2c89b69c2b068fc378daa952ba7f163c4a11628f55a4df523b3ef8360405161042c9190610695565b60405180910390a35050565b5f341161047a576040517f08c379a00000000000000000000000000000000000000000000000000000000081526004016104719061086b565b60405180910390fd5b345f5f3373ffffffffffffffffffffffffffffffffffffffff1673ffffffffffffffffffffffffffffffffffffffff1681526020019081526020015f205f8282546104c591906107ee565b925050819055503373ffffffffffffffffffffffffffffffffffffffff167fe1fffcc4923d04b559f4d29a8bfc6cda04eb5b0d3c460751c2402c5c5cc9109c346040516105129190610695565b60405180910390a2565b5f5f5f8373ffffffffffffffffffffffffffffffffffffffff1673ffffffffffffffffffffffffffffffffffffffff1681526020019081526020015f20549050919050565b5f5ffd5b5f819050919050565b61057781610565565b8114610581575f5ffd5b50565b5f813590506105928161056e565b92915050565b5f602082840312156105ad576105ac610561565b5b5f6105ba84828501610584565b91505092915050565b5f73ffffffffffffffffffffffffffffffffffffffff82169050919050565b5f6105ec826105c3565b9050919050565b6105fc816105e2565b8114610606575f5ffd5b50565b5f81359050610617816105f3565b92915050565b5f5f6040838503121561063357610632610561565b5b5f61064085828601610609565b925050602061065185828601610584565b9150509250929050565b5f602082840312156106705761066f610561565b5b5f61067d84828501610609565b91505092915050565b61068f81610565565b82525050565b5f6020820190506106a85f830184610686565b92915050565b5f82825260208201905092915050565b7f496e73756666696369656e742062616c616e63650000000000000000000000005f82015250565b5f6106f26014836106ae565b91506106fd826106be565b602082019050919050565b5f6020820190508181035f83015261071f816106e6565b9050919050565b7f4e487b71000000000000000000000000000000000000000000000000000000005f52601160045260245ffd5b5f61075d82610565565b915061076883610565565b92508282039050818111156107805761077f610726565b5b92915050565b7f496e76616c6964206164647265737300000000000000000000000000000000005f82015250565b5f6107ba600f836106ae565b91506107c582610786565b602082019050919050565b5f6020820190508181035f8301526107e7816107ae565b9050919050565b5f6107f882610565565b915061080383610565565b925082820190508082111561081b5761081a610726565b5b92915050565b7f4465706f736974206d757374206265203e2030000000000000000000000000005f82015250565b5f6108556013836106ae565b915061086082610821565b602082019050919050565b5f6020820190508181035f83015261088281610849565b905091905056fea26469706673582212202bd517536e862152a18bd405e0c096a9c1fb9bf1eb4cae71b1a2b6d8b4b4e76764736f6c634300081e0033",
					"opcodes": "PUSH1 0x80 PUSH1 0x40 MSTORE CALLVALUE DUP1 ISZERO PUSH1 0xE JUMPI PUSH0 PUSH0 REVERT JUMPDEST POP PUSH2 0x8BF DUP1 PUSH2 0x1C PUSH0 CODECOPY PUSH0 RETURN INVALID PUSH1 0x80 PUSH1 0x40 MSTORE PUSH1 0x4 CALLDATASIZE LT PUSH2 0x3E JUMPI PUSH0 CALLDATALOAD PUSH1 0xE0 SHR DUP1 PUSH4 0x2E1A7D4D EQ PUSH2 0x42 JUMPI DUP1 PUSH4 0xA9059CBB EQ PUSH2 0x6A JUMPI DUP1 PUSH4 0xD0E30DB0 EQ PUSH2 0x92 JUMPI DUP1 PUSH4 0xF8B2CB4F EQ PUSH2 0x9C JUMPI JUMPDEST PUSH0 PUSH0 REVERT JUMPDEST CALLVALUE DUP1 ISZERO PUSH2 0x4D JUMPI PUSH0 PUSH0 REVERT JUMPDEST POP PUSH2 0x68 PUSH1 0x4 DUP1 CALLDATASIZE SUB DUP2 ADD SWAP1 PUSH2 0x63 SWAP2 SWAP1 PUSH2 0x598 JUMP JUMPDEST PUSH2 0xD8 JUMP JUMPDEST STOP JUMPDEST CALLVALUE DUP1 ISZERO PUSH2 0x75 JUMPI PUSH0 PUSH0 REVERT JUMPDEST POP PUSH2 0x90 PUSH1 0x4 DUP1 CALLDATASIZE SUB DUP2 ADD SWAP1 PUSH2 0x8B SWAP2 SWAP1 PUSH2 0x61D JUMP JUMPDEST PUSH2 0x23E JUMP JUMPDEST STOP JUMPDEST PUSH2 0x9A PUSH2 0x438 JUMP JUMPDEST STOP JUMPDEST CALLVALUE DUP1 ISZERO PUSH2 0xA7 JUMPI PUSH0 PUSH0 REVERT JUMPDEST POP PUSH2 0xC2 PUSH1 0x4 DUP1 CALLDATASIZE SUB DUP2 ADD SWAP1 PUSH2 0xBD SWAP2 SWAP1 PUSH2 0x65B JUMP JUMPDEST PUSH2 0x51C JUMP JUMPDEST PUSH1 0x40 MLOAD PUSH2 0xCF SWAP2 SWAP1 PUSH2 0x695 JUMP JUMPDEST PUSH1 0x40 MLOAD DUP1 SWAP2 SUB SWAP1 RETURN JUMPDEST DUP1 PUSH0 PUSH0 CALLER PUSH20 0xFFFFFFFFFFFFFFFFFFFFFFFFFFFFFFFFFFFFFFFF AND PUSH20 0xFFFFFFFFFFFFFFFFFFFFFFFFFFFFFFFFFFFFFFFF AND DUP2 MSTORE PUSH1 0x20 ADD SWAP1 DUP2 MSTORE PUSH1 0x20 ADD PUSH0 KECCAK256 SLOAD LT ISZERO PUSH2 0x157 JUMPI PUSH1 0x40 MLOAD PUSH32 0x8C379A000000000000000000000000000000000000000000000000000000000 DUP2 MSTORE PUSH1 0x4 ADD PUSH2 0x14E SWAP1 PUSH2 0x708 JUMP JUMPDEST PUSH1 0x40 MLOAD DUP1 SWAP2 SUB SWAP1 REVERT JUMPDEST DUP1 PUSH0 PUSH0 CALLER PUSH20 0xFFFFFFFFFFFFFFFFFFFFFFFFFFFFFFFFFFFFFFFF AND PUSH20 0xFFFFFFFFFFFFFFFFFFFFFFFFFFFFFFFFFFFFFFFF AND DUP2 MSTORE PUSH1 0x20 ADD SWAP1 DUP2 MSTORE PUSH1 0x20 ADD PUSH0 KECCAK256 PUSH0 DUP3 DUP3 SLOAD PUSH2 0x1A2 SWAP2 SWAP1 PUSH2 0x753 JUMP JUMPDEST SWAP3 POP POP DUP2 SWAP1 SSTORE POP CALLER PUSH20 0xFFFFFFFFFFFFFFFFFFFFFFFFFFFFFFFFFFFFFFFF AND PUSH2 0x8FC DUP3 SWAP1 DUP2 ISZERO MUL SWAP1 PUSH1 0x40 MLOAD PUSH0 PUSH1 0x40 MLOAD DUP1 DUP4 SUB DUP2 DUP6 DUP9 DUP9 CALL SWAP4 POP POP POP POP ISZERO DUP1 ISZERO PUSH2 0x1EC JUMPI RETURNDATASIZE PUSH0 PUSH0 RETURNDATACOPY RETURNDATASIZE PUSH0 REVERT JUMPDEST POP CALLER PUSH20 0xFFFFFFFFFFFFFFFFFFFFFFFFFFFFFFFFFFFFFFFF AND PUSH32 0x7FCF532C15F0A6DB0BD6D0E038BEA71D30D808C7D98CB3BF7268A95BF5081B65 DUP3 PUSH1 0x40 MLOAD PUSH2 0x233 SWAP2 SWAP1 PUSH2 0x695 JUMP JUMPDEST PUSH1 0x40 MLOAD DUP1 SWAP2 SUB SWAP1 LOG2 POP JUMP JUMPDEST DUP1 PUSH0 PUSH0 CALLER PUSH20 0xFFFFFFFFFFFFFFFFFFFFFFFFFFFFFFFFFFFFFFFF AND PUSH20 0xFFFFFFFFFFFFFFFFFFFFFFFFFFFFFFFFFFFFFFFF AND DUP2 MSTORE PUSH1 0x20 ADD SWAP1 DUP2 MSTORE PUSH1 0x20 ADD PUSH0 KECCAK256 SLOAD LT ISZERO PUSH2 0x2BD JUMPI PUSH1 0x40 MLOAD PUSH32 0x8C379A000000000000000000000000000000000000000000000000000000000 DUP2 MSTORE PUSH1 0x4 ADD PUSH2 0x2B4 SWAP1 PUSH2 0x708 JUMP JUMPDEST PUSH1 0x40 MLOAD DUP1 SWAP2 SUB SWAP1 REVERT JUMPDEST PUSH0 PUSH20 0xFFFFFFFFFFFFFFFFFFFFFFFFFFFFFFFFFFFFFFFF AND DUP3 PUSH20 0xFFFFFFFFFFFFFFFFFFFFFFFFFFFFFFFFFFFFFFFF AND SUB PUSH2 0x32B JUMPI PUSH1 0x40 MLOAD PUSH32 0x8C379A000000000000000000000000000000000000000000000000000000000 DUP2 MSTORE PUSH1 0x4 ADD PUSH2 0x322 SWAP1 PUSH2 0x7D0 JUMP JUMPDEST PUSH1 0x40 MLOAD DUP1 SWAP2 SUB SWAP1 REVERT JUMPDEST DUP1 PUSH0 PUSH0 CALLER PUSH20 0xFFFFFFFFFFFFFFFFFFFFFFFFFFFFFFFFFFFFFFFF AND PUSH20 0xFFFFFFFFFFFFFFFFFFFFFFFFFFFFFFFFFFFFFFFF AND DUP2 MSTORE PUSH1 0x20 ADD SWAP1 DUP2 MSTORE PUSH1 0x20 ADD PUSH0 KECCAK256 PUSH0 DUP3 DUP3 SLOAD PUSH2 0x376 SWAP2 SWAP1 PUSH2 0x753 JUMP JUMPDEST SWAP3 POP POP DUP2 SWAP1 SSTORE POP DUP1 PUSH0 PUSH0 DUP5 PUSH20 0xFFFFFFFFFFFFFFFFFFFFFFFFFFFFFFFFFFFFFFFF AND PUSH20 0xFFFFFFFFFFFFFFFFFFFFFFFFFFFFFFFFFFFFFFFF AND DUP2 MSTORE PUSH1 0x20 ADD SWAP1 DUP2 MSTORE PUSH1 0x20 ADD PUSH0 KECCAK256 PUSH0 DUP3 DUP3 SLOAD PUSH2 0x3C8 SWAP2 SWAP1 PUSH2 0x7EE JUMP JUMPDEST SWAP3 POP POP DUP2 SWAP1 SSTORE POP DUP2 PUSH20 0xFFFFFFFFFFFFFFFFFFFFFFFFFFFFFFFFFFFFFFFF AND CALLER PUSH20 0xFFFFFFFFFFFFFFFFFFFFFFFFFFFFFFFFFFFFFFFF AND PUSH32 0xDDF252AD1BE2C89B69C2B068FC378DAA952BA7F163C4A11628F55A4DF523B3EF DUP4 PUSH1 0x40 MLOAD PUSH2 0x42C SWAP2 SWAP1 PUSH2 0x695 JUMP JUMPDEST PUSH1 0x40 MLOAD DUP1 SWAP2 SUB SWAP1 LOG3 POP POP JUMP JUMPDEST PUSH0 CALLVALUE GT PUSH2 0x47A JUMPI PUSH1 0x40 MLOAD PUSH32 0x8C379A000000000000000000000000000000000000000000000000000000000 DUP2 MSTORE PUSH1 0x4 ADD PUSH2 0x471 SWAP1 PUSH2 0x86B JUMP JUMPDEST PUSH1 0x40 MLOAD DUP1 SWAP2 SUB SWAP1 REVERT JUMPDEST CALLVALUE PUSH0 PUSH0 CALLER PUSH20 0xFFFFFFFFFFFFFFFFFFFFFFFFFFFFFFFFFFFFFFFF AND PUSH20 0xFFFFFFFFFFFFFFFFFFFFFFFFFFFFFFFFFFFFFFFF AND DUP2 MSTORE PUSH1 0x20 ADD SWAP1 DUP2 MSTORE PUSH1 0x20 ADD PUSH0 KECCAK256 PUSH0 DUP3 DUP3 SLOAD PUSH2 0x4C5 SWAP2 SWAP1 PUSH2 0x7EE JUMP JUMPDEST SWAP3 POP POP DUP2 SWAP1 SSTORE POP CALLER PUSH20 0xFFFFFFFFFFFFFFFFFFFFFFFFFFFFFFFFFFFFFFFF AND PUSH32 0xE1FFFCC4923D04B559F4D29A8BFC6CDA04EB5B0D3C460751C2402C5C5CC9109C CALLVALUE PUSH1 0x40 MLOAD PUSH2 0x512 SWAP2 SWAP1 PUSH2 0x695 JUMP JUMPDEST PUSH1 0x40 MLOAD DUP1 SWAP2 SUB SWAP1 LOG2 JUMP JUMPDEST PUSH0 PUSH0 PUSH0 DUP4 PUSH20 0xFFFFFFFFFFFFFFFFFFFFFFFFFFFFFFFFFFFFFFFF AND PUSH20 0xFFFFFFFFFFFFFFFFFFFFFFFFFFFFFFFFFFFFFFFF AND DUP2 MSTORE PUSH1 0x20 ADD SWAP1 DUP2 MSTORE PUSH1 0x20 ADD PUSH0 KECCAK256 SLOAD SWAP1 POP SWAP2 SWAP1 POP JUMP JUMPDEST PUSH0 PUSH0 REVERT JUMPDEST PUSH0 DUP2 SWAP1 POP SWAP2 SWAP1 POP JUMP JUMPDEST PUSH2 0x577 DUP2 PUSH2 0x565 JUMP JUMPDEST DUP2 EQ PUSH2 0x581 JUMPI PUSH0 PUSH0 REVERT JUMPDEST POP JUMP JUMPDEST PUSH0 DUP2 CALLDATALOAD SWAP1 POP PUSH2 0x592 DUP2 PUSH2 0x56E JUMP JUMPDEST SWAP3 SWAP2 POP POP JUMP JUMPDEST PUSH0 PUSH1 0x20 DUP3 DUP5 SUB SLT ISZERO PUSH2 0x5AD JUMPI PUSH2 0x5AC PUSH2 0x561 JUMP JUMPDEST JUMPDEST PUSH0 PUSH2 0x5BA DUP5 DUP3 DUP6 ADD PUSH2 0x584 JUMP JUMPDEST SWAP2 POP POP SWAP3 SWAP2 POP POP JUMP JUMPDEST PUSH0 PUSH20 0xFFFFFFFFFFFFFFFFFFFFFFFFFFFFFFFFFFFFFFFF DUP3 AND SWAP1 POP SWAP2 SWAP1 POP JUMP JUMPDEST PUSH0 PUSH2 0x5EC DUP3 PUSH2 0x5C3 JUMP JUMPDEST SWAP1 POP SWAP2 SWAP1 POP JUMP JUMPDEST PUSH2 0x5FC DUP2 PUSH2 0x5E2 JUMP JUMPDEST DUP2 EQ PUSH2 0x606 JUMPI PUSH0 PUSH0 REVERT JUMPDEST POP JUMP JUMPDEST PUSH0 DUP2 CALLDATALOAD SWAP1 POP PUSH2 0x617 DUP2 PUSH2 0x5F3 JUMP JUMPDEST SWAP3 SWAP2 POP POP JUMP JUMPDEST PUSH0 PUSH0 PUSH1 0x40 DUP4 DUP6 SUB SLT ISZERO PUSH2 0x633 JUMPI PUSH2 0x632 PUSH2 0x561 JUMP JUMPDEST JUMPDEST PUSH0 PUSH2 0x640 DUP6 DUP3 DUP7 ADD PUSH2 0x609 JUMP JUMPDEST SWAP3 POP POP PUSH1 0x20 PUSH2 0x651 DUP6 DUP3 DUP7 ADD PUSH2 0x584 JUMP JUMPDEST SWAP2 POP POP SWAP3 POP SWAP3 SWAP1 POP JUMP JUMPDEST PUSH0 PUSH1 0x20 DUP3 DUP5 SUB SLT ISZERO PUSH2 0x670 JUMPI PUSH2 0x66F PUSH2 0x561 JUMP JUMPDEST JUMPDEST PUSH0 PUSH2 0x67D DUP5 DUP3 DUP6 ADD PUSH2 0x609 JUMP JUMPDEST SWAP2 POP POP SWAP3 SWAP2 POP POP JUMP JUMPDEST PUSH2 0x68F DUP2 PUSH2 0x565 JUMP JUMPDEST DUP3 MSTORE POP POP JUMP JUMPDEST PUSH0 PUSH1 0x20 DUP3 ADD SWAP1 POP PUSH2 0x6A8 PUSH0 DUP4 ADD DUP5 PUSH2 0x686 JUMP JUMPDEST SWAP3 SWAP2 POP POP JUMP JUMPDEST PUSH0 DUP3 DUP3 MSTORE PUSH1 0x20 DUP3 ADD SWAP1 POP SWAP3 SWAP2 POP POP JUMP JUMPDEST PUSH32 0x496E73756666696369656E742062616C616E6365000000000000000000000000 PUSH0 DUP3 ADD MSTORE POP JUMP JUMPDEST PUSH0 PUSH2 0x6F2 PUSH1 0x14 DUP4 PUSH2 0x6AE JUMP JUMPDEST SWAP2 POP PUSH2 0x6FD DUP3 PUSH2 0x6BE JUMP JUMPDEST PUSH1 0x20 DUP3 ADD SWAP1 POP SWAP2 SWAP1 POP JUMP JUMPDEST PUSH0 PUSH1 0x20 DUP3 ADD SWAP1 POP DUP2 DUP2 SUB PUSH0 DUP4 ADD MSTORE PUSH2 0x71F DUP2 PUSH2 0x6E6 JUMP JUMPDEST SWAP1 POP SWAP2 SWAP1 POP JUMP JUMPDEST PUSH32 0x4E487B7100000000000000000000000000000000000000000000000000000000 PUSH0 MSTORE PUSH1 0x11 PUSH1 0x4 MSTORE PUSH1 0x24 PUSH0 REVERT JUMPDEST PUSH0 PUSH2 0x75D DUP3 PUSH2 0x565 JUMP JUMPDEST SWAP2 POP PUSH2 0x768 DUP4 PUSH2 0x565 JUMP JUMPDEST SWAP3 POP DUP3 DUP3 SUB SWAP1 POP DUP2 DUP2 GT ISZERO PUSH2 0x780 JUMPI PUSH2 0x77F PUSH2 0x726 JUMP JUMPDEST JUMPDEST SWAP3 SWAP2 POP POP JUMP JUMPDEST PUSH32 0x496E76616C696420616464726573730000000000000000000000000000000000 PUSH0 DUP3 ADD MSTORE POP JUMP JUMPDEST PUSH0 PUSH2 0x7BA PUSH1 0xF DUP4 PUSH2 0x6AE JUMP JUMPDEST SWAP2 POP PUSH2 0x7C5 DUP3 PUSH2 0x786 JUMP JUMPDEST PUSH1 0x20 DUP3 ADD SWAP1 POP SWAP2 SWAP1 POP JUMP JUMPDEST PUSH0 PUSH1 0x20 DUP3 ADD SWAP1 POP DUP2 DUP2 SUB PUSH0 DUP4 ADD MSTORE PUSH2 0x7E7 DUP2 PUSH2 0x7AE JUMP JUMPDEST SWAP1 POP SWAP2 SWAP1 POP JUMP JUMPDEST PUSH0 PUSH2 0x7F8 DUP3 PUSH2 0x565 JUMP JUMPDEST SWAP2 POP PUSH2 0x803 DUP4 PUSH2 0x565 JUMP JUMPDEST SWAP3 POP DUP3 DUP3 ADD SWAP1 POP DUP1 DUP3 GT ISZERO PUSH2 0x81B JUMPI PUSH2 0x81A PUSH2 0x726 JUMP JUMPDEST JUMPDEST SWAP3 SWAP2 POP POP JUMP JUMPDEST PUSH32 0x4465706F736974206D757374206265203E203000000000000000000000000000 PUSH0 DUP3 ADD MSTORE POP JUMP JUMPDEST PUSH0 PUSH2 0x855 PUSH1 0x13 DUP4 PUSH2 0x6AE JUMP JUMPDEST SWAP2 POP PUSH2 0x860 DUP3 PUSH2 0x821 JUMP JUMPDEST PUSH1 0x20 DUP3 ADD SWAP1 POP SWAP2 SWAP1 POP JUMP JUMPDEST PUSH0 PUSH1 0x20 DUP3 ADD SWAP1 POP DUP2 DUP2 SUB PUSH0 DUP4 ADD MSTORE PUSH2 0x882 DUP2 PUSH2 0x849 JUMP JUMPDEST SWAP1 POP SWAP2 SWAP1 POP JUMP INVALID LOG2 PUSH5 0x6970667358 0x22 SLT KECCAK256 0x2B 0xD5 OR MSTORE8 PUSH15 0x862152A18BD405E0C096A9C1FB9BF1 0xEB 0x4C 0xAE PUSH18 0xB1A2B6D8B4B4E76764736F6C634300081E00 CALLER "
				},
				"gasEstimates": {
					"creation": {
						"codeDepositCost": "447800",
						"executionCost": "478",
						"totalCost": "448278"
					},
					"external": {
						"deposit()": "infinite",
						"getBalance(address)": "2872",
						"transfer(address,uint256)": "infinite",
						"withdraw(uint256)": "infinite"
					}
				},
				"methodIdentifiers": {
					"deposit()": "d0e30db0",
					"getBalance(address)": "f8b2cb4f",
					"transfer(address,uint256)": "a9059cbb",
					"withdraw(uint256)": "2e1a7d4d"
				}
			},
			"storageLayout": {
				"storage": [
					{
						"astId": 5,
						"contract": "bankDemo.sol:SimpleBank",
						"label": "balances",
						"offset": 0,
						"slot": "0",
						"type": "t_mapping(t_address,t_uint256)"
					}
				],
				"types": {
					"t_address": {
						"encoding": "inplace",
						"label": "address",
						"numberOfBytes": "20"
					},
					"t_mapping(t_address,t_uint256)": {
						"encoding": "mapping",
						"key": "t_address",
						"label": "mapping(address => uint256)",
						"numberOfBytes": "32",
						"value": "t_uint256"
					},
					"t_uint256": {
						"encoding": "inplace",
						"label": "uint256",
						"numberOfBytes": "32"
					}
				}
			},
			"userdoc": {
				"kind": "user",
				"methods": {},
				"version": 1
			}
		}
	}
}